:100000000C9434000C9451000C9451000C94510049
:100010000C9451000C9451000C9451000C9451001C
:100020000C9451000C94FE050C9451000C9451005A
:100030000C9451000C9451000C9451000C945100FC
:100040000C9466060C9451000C9442060C945100DA
:100050000C9451000C941E060C9451000C94510009
:100060000C9451000C94510011241FBECFEFD8E026
:10007000DEBFCDBF11E0A0E0B1E0E2E4F0E102C0FC
:1000800005900D92AA31B107D9F722E0AAE1B1E0BB
:1000900001C01D92AC3DB207E1F70E9459040C94D7
:1000A0001F080C94000080917C0080FD7FC080912F
:1000B000780090E09093DB028093DA0280917900DF
:1000C00090E09093D9028093D802E0914601F0919C
:1000D00047018091D8029091D9022091DA023091A3
:1000E000DB02982F8827822B932BEE0FFF1FE05FF8
:1000F000FD4F918380838091460190914701833623
:10010000910509F044C020E030E0F901EE0FFF1F37
:10011000E05FFD4F8081918140914001509141010C
:100120006091420170914301AA2797FDA095BA2FD3
:10013000840F951FA61FB71F809340019093410124
:10014000A0934201B09343012F5F3F4F2436310506
:10015000E1F66091400170914101809142019091DE
:10016000430124E630E040E050E00E94CF073093A6
:10017000030120930201109240011092410110925C
:100180004201109243011092470110924601809162
:100190004601909147010196909347018093460153
:1001A000ECE7F0E080818160808382C080917C00F8
:1001B00080FF7EC08091780090E09093DB02809376
:1001C000DA028091790090E09093D9028093D8026E
:1001D000E0914401F09145018091D8029091D902BB
:1001E0002091DA023091DB02982F8827822B932B03
:1001F000EE0FFF1FE85BFE4F9183808380914401E7
:10020000909145018336910509F044C020E030E02B
:10021000F901EE0FFF1FE85BFE4F80819181409155
:100220004001509141016091420170914301AA2720
:1002300097FDA095BA2F840F951FA61FB71F809317
:10024000400190934101A0934201B09343012F5F7D
:100250003F4F24363105E1F6609140017091410134
:10026000809142019091430124E630E040E050E06B
:100270000E94CF07309301012093000110924001AA
:1002800010924101109242011092430110924501D7
:100290001092440180914401909145010196909300
:1002A000450180934401ECE7F0E080818E7F8083FC
:1002B000EAE7F0E08081806480830895662319F086
:1002C0006130D1F031C06091020170910301725030
:1002D000882777FD8095982F0E94BE0623E333E39D
:1002E00043ED51E40E9422079F770E948B06709392
:1002F0003F0160933E0118C06091000170910101BF
:100300007250882777FD8095982F0E94BE0623E3C0
:1003100033E343ED51E40E9422079F770E948B064E
:1003200070933F0160933E0180913E0190913F01A7
:1003300008958091C60080932801809128018C3314
:1003400061F41092290181E090E0FC01E65DFE4F2E
:100350001082019684319105C1F780912901843181
:1003600070F4E0912901F0E080912801E65DFE4FF4
:100370008083809129018F5F80932901089580E017
:1003800090E0FC01E65DFE4F1082019684319105FC
:10039000C1F71092290108956F927F928F929F92D8
:1003A000AF92BF92CF92DF92EF92FF920F931F9383
:1003B000CF93DF93DC0121E030E00F2EF6E0FF2E3B
:1003C000F02D0CE211E06DE271E08EE291E0CFE2FF
:1003D000D1E00F2EF0E38F2EF1E09F2EF02D0F2EA7
:1003E000F1E36F2EF1E07F2EF02D0F2EF7E0BF2E00
:1003F000F02D0F2EF5E0CF2EF02DDD24D394689450
:10040000EE24E1F8A90141505109FA01E65DFE4FE1
:10041000E081EC3399F5F901E55DFE4FE081EE33C3
:1004200069F51DC0DC9214C0EC9212C0CC9210C0D1
:10043000BC920EC0F901EE5CFE4F40814E3341F498
:1004400024C0F901EF5CFE4F4081403729F1FC9256
:100450002F5F3F4F25313105A9F68C913BC0F90143
:10046000E65DFE4F40814233F9F218F44133D1F298
:10047000EFCF4135D9F24335D9F2EACFFA01E65D43
:10048000FE4F40814C3321F7D5CFF901E65DFE4F99
:1004900040814035E1F6D5CFF801A080FB014081D5
:1004A00050E05A2918965C934E931797FC01A08050
:1004B000488150E05A291A965C934E931997F4019B
:1004C000A080F301408150E05A291C965C934E9322
:1004D0001B97BDCFDF91CF911F910F91FF90EF90B0
:1004E000DF90CF90BF90AF909F908F907F906F9054
:1004F0000895CF93DF93FB019081992381F020E051
:10050000E0ECF0E0C6ECD0E0808185FFFDCF988381
:100510002F5FDB01A20FB11D9C919111F5CFDF91EF
:10052000CF910895CF93DF93EC01213019F0223061
:1005300059F024C08CE3898381E38A837B836C83B5
:100540004D838EE38E831AC08CE3898382E38A8392
:100550007B836C834D838EE38E8310C0408145FF87
:10056000FDCFDE01A20FB31F11964C91DC014C931D
:100570002F5F3F4F2630310589F707C020E030E07C
:10058000E0ECF0E086EC90E0E9CFDF91CF910895C8
:1005900020E030E0F901E65DFE4F10822F5F3F4F13
:1005A00024313105B9F7FC01108208958BB1806CBC
:1005B0008BB98AB18F738AB9089584B18F6384B976
:1005C00085B1807C85B9089585B5856085BDEEE6E9
:1005D000F0E080818160808308954E992CC04F9B0C
:1005E0002AC02CC080912301811142C08091250135
:1005F00081113EC0E4E2F1E0908181E09827908390
:10060000109227018093230108954F9B21C02AC097
:100610008091230181112CC080912401811128C077
:10062000E5E2F1E0908181E0982790831092260125
:100630008093230108954E99E8CF14C010922601AB
:10064000809127018F5F80932701893058F60895A4
:1006500010922701809126018F5F809326018930B7
:10066000B8F60895109223011092270110922601E6
:100670000895662319F0613041F0089585B18D7EAB
:1006800085B985B1816285B9089585B18E7D85B9B9
:1006900085B1826185B9089585B18D7E85B985B1B1
:1006A0008E7D85B9089585B18C6085B9089585B131
:1006B000837F85B90895FF920F931F93CF93DF93A4
:1006C000EB0180E090E010E0688179810E94FC07F6
:1006D0001E5F812F90E086309105B4F318C0F801B9
:1006E000608171810E94FC07F394F3948F2D90E058
:1006F0008C309105A4F315C0688179810E94FC07B4
:100700001E5F812F90E082319105B4F30FC08E01FE
:100710000E5F1F4F86E090E00F2EF6E0FF2EF02DCB
:10072000DECF24968CE090E01CE0E6CFDF91CF9105
:100730001F910F91FF900895AF92BF92CF92DF92D9
:10074000EF92FF920F931F93CF93DF93A82EB92EB2
:10075000082F192FC0E0D0E0CE010E94F6077C01DF
:10076000CE0104960E94F6076C01E816F90621F402
:10077000F801F182E08211C0CE0108960E94F607CE
:10078000E816F90621F4F801F182E08206C0C816E5
:10079000D90619F4F801D182C08226960E5F1F4F48
:1007A000C231D105C9F68A2D9B2DDF91CF911F91C2
:1007B0000F91FF90EF90DF90CF90BF90AF90089592
:1007C0008F929F92AF92BF92CF92DF92EF92FF9261
:1007D0000F931F93CF93DF935C018CE3F501868326
:1007E0008501085F1F4FC1E0D0E06E01F1E0CF1A34
:1007F000D108C6010E94F6077C01CE0103960E9433
:10080000F6074C01E816F90661F4C6010E94EE07EE
:10081000F8018083CE010E94EE07F80131978083B2
:1008200023C0CE0107960E94F607E816F90661F488
:10083000C6010E94EE07F8018083CE010E94EE07F8
:10084000F8013197808310C08816990669F4CE01AB
:1008500001960E94EE07F8018083CE0102960E9465
:10086000EE07F801319780830E5F1F4F2696C33144
:10087000D10509F0BACF8EE3F50185871686C5014B
:100880000696DF91CF911F910F91FF90EF90DF902F
:10089000CF90BF90AF909F908F900895E1EBF0E0E4
:1008A000808187608083E0E7F0E0808181608083E1
:1008B0000895CF93DF93CDB7DEB76F970FB6F89457
:1008C000DEBF0FBECDBF2FEF81EE94E02150804000
:1008D0009040E1F700C0000080E480937C008FEC42
:1008E00080937A0083E390E09093C5008093C400E6
:1008F00080E28093C00086E08093C20080E980930C
:10090000C100CE014E960E94D602CE014E960E94A4
:10091000DD02CE014E960E94E4020E944E041C8E1F
:100920001D8ECE0101960E949C03CE0101960E946D
:100930009C03CE0101960E949C037894412C0F2EBB
:10094000F4E26F2EF1E07F2EF02DA12CB12C212CA2
:10095000322C0F2EF1EC8F2E912CF02D80911A015C
:1009600081114FC0FE017C967F0163018501502EED
:10097000602FCE014F960E945E01F801EE0FFF1F1F
:10098000E15EFE4F918380830F5F1F4FF6018191DF
:100990006F01F7019081981769F18083813009F523
:1009A000CE014E960E945703FFEF21EE84E0F150F6
:1009B00020408040E1F700C00000652DCE014E963A
:1009C0000E9439039FEFE1EEF4E09150E040F040E7
:1009D000E1F700C00000CE014E960E945303402E66
:1009E00009C0CE014E960E945703CE014E960E943A
:1009F0004C03432C2FEFE21AF20A0230110509F0E2
:100A0000B6CFCE010F960E94CC01853009F449C0C3
:100A100028F4813051F0823031F1A6C0863009F4DB
:100A20005AC0873009F484C09FC08FEF91EEE4E094
:100A300081509040E040E1F700C0000088E0F40100
:100A4000808360911F017091200121E0442DCE012F
:100A50000F960E949202CE010F960E94C80280E972
:100A6000F401808381C0FFEF21EE84E0F15020404B
:100A70008040E1F700C0000088E0F40180836091CD
:100A800021017091220122E0442DCE010F960E9497
:100A90009202CE010F960E94C80280E9F401808381
:100AA00063C0FFEF21EE84E0F15020408040E1F789
:100AB00000C0000088E0F401808364E071E0CE01B2
:100AC0000F960E947902CE010F960E94C80280E91B
:100AD000F401808349C0FFEF21EE84E0F150204013
:100AE0008040E1F700C00000BE016A5E7F4FCE018A
:100AF00001960E945B03CE0101960E949C03CE01E9
:100B000001960E949C03CE0101960E949C0388E0FE
:100B1000F401808365E171E0CE010F960E947902B5
:100B2000CE010F960E94C80280E9F40180831CC0A8
:100B3000FFEF21EE84E0F15020408040E1F700C05B
:100B4000000088E0F4018083CE0101960E94E0035A
:100B5000BC01CE010F960E947902CE010F960E9431
:100B6000C80280E9F401808380911F0190912001E7
:100B7000813991403CF48091210190912201813989
:100B800091409CF181E090E090931C0180931B01C7
:100B900080911D0190911E0109970CF4DFCECE01CA
:100BA0004E960E945703CE014E960E944C038FEF43
:100BB00091EEE4E081509040E040E1F700C0000099
:100BC000B0921C01A0921B01B0921E01A0921D01C7
:100BD00081E080931A011092200110921F0110925F
:100BE000220110922101422CB9CEB0921C01A09298
:100BF0001B01B0921E01A0921D01B0CE1F920F9258
:100C00000FB60F9211242F933F938F939F93809150
:100C10001B0190911C0120911D0130911E01820F3A
:100C2000931F90931E0180931D019F918F913F917F
:100C30002F910F900FBE0F901F9018951F920F923B
:100C40000FB60F9211242F933F934F935F936F939F
:100C50007F938F939F93AF93BF93EF93FF930E94E4
:100C60005300FF91EF91BF91AF919F918F917F9131
:100C70006F915F914F913F912F910F900FBE0F9009
:100C80001F9018951F920F920FB60F9211242F9359
:100C90003F934F935F936F937F938F939F93AF9304
:100CA000BF93EF93FF930E949901FF91EF91BF9142
:100CB000AF919F918F917F916F915F914F913F91F4
:100CC0002F910F900FBE0F901F90189578941F9240
:100CD0000F920FB60F9211242F933F934F935F9370
:100CE0006F937F938F939F93AF93BF93EF93FF93F4
:100CF0000E94ED02FF91EF91BF91AF919F918F9173
:100D00007F916F915F914F913F912F910F900FBE07
:100D10000F901F90189504D06894B1118DC008955C
:100D200070D088F09F5790F0B92F9927B751A0F055
:100D3000D1F0660F771F881F991F1AF0BA95C9F76F
:100D400012C0B13081F077D0B1E0089574C0672F40
:100D5000782F8827B85F39F0B93FCCF3869577951F
:100D60006795B395D9F73EF4909580957095619508
:100D70007F4F8F4F9F4F0895E89409C097FB3EF433
:100D800090958095709561957F4F8F4F9F4F9923D8
:100D9000A9F0F92F96E9BB279395F6958795779556
:100DA0006795B795F111F8CFFAF4BB0F11F460FF16
:100DB0001BC06F5F7F4F8F4F9F4F16C0882311F06E
:100DC00096E911C0772321F09EE8872F762F05C082
:100DD000662371F096E8862F70E060E02AF09A951D
:100DE000660F771F881FDAF7880F9695879597F912
:100DF000089557FD9058440F551F59F05F3F71F00B
:100E00004795880F97FB991F61F09F3F79F0879571
:100E10000895121613061406551FF2CF4695F1DFFA
:100E200008C0161617061806991FF1CF869571058A
:100E3000610508940895E894BB2766277727CB01BE
:100E400097F908950BD078C069D028F06ED018F0CB
:100E5000952309F05AC05FC01124EECFCADFA0F37A
:100E6000959FD1F3950F50E0551F629FF001729F3F
:100E7000BB27F00DB11D639FAA27F00DB11DAA1F5E
:100E8000649F6627B00DA11D661F829F2227B00DAB
:100E9000A11D621F739FB00DA11D621F839FA00D36
:100EA000611D221F749F3327A00D611D231F849F86
:100EB000600D211D822F762F6A2F11249F575040DD
:100EC0008AF0E1F088234AF0EE0FFF1FBB1F661F78
:100ED000771F881F91505040A9F79E3F510570F031
:100EE00014C0AACF5F3FECF3983EDCF3869577956C
:100EF0006795B795F795E7959F5FC1F7FE2B880F2C
:100F0000911D9695879597F9089597F99F6780E8C1
:100F100070E060E008959FEF80EC089500240A944B
:100F20001616170618060906089500240A941216C4
:100F30001306140605060895092E0394000C11F4F7
:100F4000882352F0BB0F40F4BF2B11F460FF04C0A4
:100F50006F5F7F4F8F4F9F4F0895A1E21A2EAA1BFC
:100F6000BB1BFD010DC0AA1FBB1FEE1FFF1FA21759
:100F7000B307E407F50720F0A21BB30BE40BF50B56
:100F8000661F771F881F991F1A9469F760957095DF
:100F9000809590959B01AC01BD01CF010895052E70
:100FA00097FB1EF400940E94E60757FD07D00E94AD
:100FB000AD0707FC03D04EF40C94E607509540951E
:100FC000309521953F4F4F4F5F4F089590958095F5
:100FD000709561957F4F8F4F9F4F0895F999FECF80
:100FE00092BD81BDF89A992780B50895A8E1B0E037
:100FF00042E050E00C9403080E941108272F0C9443
:101000001208DC01CB01FC01F999FECF06C0F2BD4C
:10101000E1BDF89A319600B40D9241505040B8F7B6
:101020000895262FF999FECF1FBA92BD81BD20BD2C
:101030000FB6F894FA9AF99A0FBE01960895F894AB
:02104000FFCFE0
:101042000002000241726475696E6F206973206646
:0A1052006F756E64004F6B5F530072
:00000001FF
